:020000040800F2
:10000000C0910020F1EF0008E9DE0008EBDE0008F7
:10001000EDDE0008EFDE0008F1DE00080000000061
:10002000000000000000000000000000F9C200080D
:10003000F3DE000800000000A1C20008EDBD0008CA
:10004000B5F10008B9F10008BDF10008C1F10008E0
:10005000C5F10008C9F10008CDF10008D1F1000890
:10006000D5F10008D9F10008DDF10008E1F1000840
:10007000E5F10008E9F10008F5DE0008FFDE000800
:10008000EDF10008F1F10008F5F10008F9F10008C0
:10009000FDF1000801F2000805F2000809F200086D
:1000A0000DF2000809DF000811F2000815F200083F
:1000B00019F200081DF2000821F2000813DF000801
:1000C0001DDF000825F2000829F200082DF20008C3
:1000D00027DF000831DF000831F200083BDF0008AD
:1000E00035F2000839F200083DF2000841F200083C
:1000F00045F2000849F200084DF2000851F20008EC
:1001000055F2000845DF000859F200085DF20008CA
:1001100061F2000865F2000869F200086DF200085B
:1001200071F200084FDF000859DF000863DF0008A4
:1001300075F2000879F200087DF2000881F20008EB
:1001400085F2000889F200088DF2000891F200089B
:1001500095F200086DDF000877DF000881DF0008F6
:1001600099F200089DF20008A1F20008A5F200082B
:10017000A9F20008ADF20008B1F20008000000008A
:10018000B5F20008B9F2000870B50400002C01D1E6
:100190000120E1E094F83D00002805D1002084F81A
:1001A0003C00200001F0E6F9242084F83D0020689E
:1001B000006840084000216808602068006850F42A
:1001C0000040216808602068006830F40040216821
:1001D000086001F0D8FA0100DFF848036268824243
:1001E00008D2DFF84423914201D2012200E000222C
:1001F000D2B207E0DFF83423914201D2012200E0BD
:100200000022D2B2012A01D10120A5E0DFF820238B
:10021000B1FBF2F223685B689B099B0113432568DD
:100220006B6023681B6A6568854201D2551C08E033
:100230004FF4967505FB02F54FF47A76B5FBF6F5AB
:100240006D1C9B099B012B4325682B622368DB698E
:100250006568854214D2481E65686D00B0FBF5F0F4
:10026000401C0005000D042801D204253EE0481E74
:1002700065686D00B0FBF5F56D1C2D052D0D35E0A5
:10028000A068002809D14D1E666803204643B5FBCF
:10029000F6F0401C0005000D0AE04D1E66681920AE
:1002A0004643B5FBF6F0401C0005000D50F48040BD
:1002B000000501D1012519E0A068002809D14D1ED3
:1002C000666803204643B5FBF6F56D1C2D052D0D24
:1002D0000AE04D1E666819204643B5FBF6F56D1C15
:1002E0002D052D0D55F4804555F40045DFF84402E9
:1002F00003402B432068C3612068036833F0C003C8
:10030000E0690343206A0343206803602068836830
:10031000DFF82402034020690343E06803432068B8
:1003200083602068C3681B0A1B02A56960690543D6
:100330002B432068C3602068006850F001002368E8
:10034000186000202064202084F83D0000202063F5
:10035000002084F83E00002070BD38B40400002066
:10036000009094F83D00202863D1DFF8D4010068A4
:100370001925B0FBF5F04FF47A75B0FBF5F51920AF
:10038000454300950098401E00900098002810D129
:1003900000202063202084F83D00002084F83E00E7
:1003A000206C50F020002064002084F83C000120E4
:1003B00040E0206880698007E4D494F83C0001287C
:1003C00001D1022036E0012084F83C00206800685A
:1003D000C00705D42068006850F001002568286037
:1003E0002068006830F4006025682860212084F8C7
:1003F0003D00102084F83E00002020646262638586
:10040000608D2085DFF83401E062080080B260640E
:100410002068006850F4807025682860002084F807
:100420003C002068406850F4E06025686860002067
:1004300000E0022032BC704738B404000020009075
:1004400094F83D00202869D1DFF8F40000681925F0
:10045000B0FBF5F04FF47A75B0FBF5F51920454384
:1004600000950098401E00900098002810D10020B0
:100470002063202084F83D00002084F83E00206C9A
:1004800050F020002064002084F83C00012046E069
:10049000206880698007E4D494F83C00012801D1E9
:1004A00002203CE0012084F83C0020680068C0077E
:1004B00005D42068006850F0010025682860206895
:1004C000006830F4006025682860222084F83D0030
:1004D000102084F83E000020206462626385608DF5
:1004E0002085DFF85800E062080080B26064206870
:1004F000006850F48060256828602068006850F427
:10050000807025682860002084F83C0020684068DE
:1005100050F4E06025686860002000E0022032BCF2
:1005200070470000A186010080841E0000093D0084
:1005300040420F000030FFFF007CFFFF0000FFFF84
:10054000200000202DE9F0470400002520684668BF
:10055000E76A94F83E8094F83D904046C0B2102877
:1005600003D04046C0B240286AD1206880690500A7
:100570002068D0F814A05FEACA700CD4B7F52A0F2F
:1005800002D0B7F12A4F01D1012000E00020C0B213
:10059000002840F0AC801AF00100C0B2002808D05A
:1005A000B00506D5200000F07EFF200000F00DFB16
:1005B0009DE05FEA0A7005D5B00503D5200000F084
:1005C0005DFB94E05FEA8A7005D5B00503D5200095
:1005D00000F06DFB8BE0680719D5206840680005C6
:1005E00000F185805FEA0A6008D5700506D55FEAEC
:1005F0004A7003D4200000F0F2F878E05FEA4A7015
:1006000075D5B00573D5200000F05DF96FE0206866
:10061000406800056BD45FEA4A6008D5700506D5CE
:100620005FEA4A7003D4200000F0E8F95FE05FEA77
:100630004A705CD5B0055AD5200000F032FA56E079
:10064000206C002803D02068D0F814A005E02068B2
:10065000806905002068D0F814A05FEA8A700CD584
:10066000B0050AD5206C002802D0206880690500FA
:100670002900200000F0A8FC39E05FEACA6005D537
:10068000B00503D5200000F0CDFC30E04846C0B2F4
:10069000212803D04846C0B2292814D15FEA0A6055
:1006A00008D5700506D55FEA4A7003D4200000F033
:1006B00021FC1CE05FEA4A7019D5B00517D520006F
:1006C00000F03FFC13E05FEA4A6008D5700506D5EC
:1006D0005FEA4A7003D4200000F041FC07E05FEAC3
:1006E0004A7004D5B00502D5200000F05FFCBDE8DB
:1006F000F0872DE9F84F06003068D0F81490306884
:10070000D0F804A0002596F83EB05FEAC95008D59D
:100710005FEACA5005D555F001057FF48070316855
:1007200048615FEA895008D55FEACA5005D555F09F
:1007300002057FF40070316848615FEA495038D59E
:100740005FEACA5035D58DF800B0708D040096F878
:100750003D000700306B80469DF80000202814D132
:10076000002C12D13800C0B221280AD03800C0B203
:10077000292806D03800C0B2282806D1B8F1210FA8
:1007800003D1300000F01BFD13E07FF4806031687E
:10079000486155F004055846C0B2102803D05846A9
:1007A000C0B2402805D13068006850F4007031684C
:1007B00008605FEA095008D55FEACA5005D555F0D0
:1007C00008057FF4006031684861002D05D0306C69
:1007D00028433064300000F044FDBDE8F18FF8B5E7
:1007E000040094F83D5094F83E60E76A208D00289C
:1007F00040D12800C0B221283CD1082F17D0202F8B
:1008000015D0DFF8E40B874211D02068406830F43F
:10081000E0602168486011202063002084F83E00D9
:10082000202084F83D00200000F0E7FE4AE0206828
:10083000406830F4E060216848602068006850F447
:1008400000702168086000202063202084F83D00AB
:1008500094F83E00402806D1002084F83E00200095
:1008600001F01CF82EE0002084F83E00200000F08B
:10087000C4FE27E02800C0B2212807D03000C0B253
:1008800040281FD12800C0B222281BD1608D00282B
:1008900006D12068406830F480602168486011E02B
:1008A00094F83E00402803D1200000F067F809E0EA
:1008B000606A007821680861606A401C6062608D2F
:1008C000401E6085F1BD38B50400E56A94F83D002E
:1008D00021284AD1608D00280AD0606A00782168FA
:1008E0000861606A401C6062608D401E608543E064
:1008F000082D17D0202D15D0DFF8EC0A854211D035
:100900002068406830F4E06021684860112020636E
:10091000002084F83E00202084F83D00200000F0F4
:100920006CFE29E02068406830F4E060216848608F
:100930002068006850F4007021680860002020637F
:10094000202084F83D0094F83E00402806D1002085
:1009500084F83E00200000F0A1FF0DE0002084F8A4
:100960003E00200000F049FE06E094F83E004028DA
:1009700002D1200000F002F831BD0000016D002915
:1009800014D1C16C012907D1816CC9B2026811610F
:10099000016D891C016530E0816C89B2090AC9B218
:1009A00002681161016D491C016526E0016D012994
:1009B00007D1816CC9B202681161016D491C0165E2
:1009C0001BE0016D022918D190F83D10222906D1B3
:1009D0000168096851F48071026811600DE090F8B7
:1009E0003D10212909D1416A097802681161416AE3
:1009F000491C4162418D491E4185704738B505004B
:100A000095F83D0022284BD16C8D042C13D3286817
:100A10000069696A0870686A401C6862688D401ED7
:100A20006885688D03283BD12868406830F4806071
:100A30002968486034E0E86A022831D0012C01D0EE
:100A4000002C2DD12868006830F480602968086087
:100A50002868406830F4E0602968486028680069C8
:100A6000696A0870686A401C6862688D401E688503
:100A7000202085F83D0095F83E00402808D1002050
:100A800085F83E0000202863280000F008FF07E0FA
:100A9000002085F83E0012202863280000F0B7FDF2
:100AA00031BD38B50400E56A608D042810D1206896
:100AB000406830F480602168486020680069616A9D
:100AC0000870606A401C6062608D401E60857BE03B
:100AD000608D03281AD12068406830F48060216856
:100AE0004860042D07D0022D05D02068006830F43E
:100AF00080602168086020680069616A0870606A27
:100B0000401C6062608D401E60855DE0608D022843
:100B100050D1012D01D0102D06D12068006830F48D
:100B200080602168086012E0042D01D0022D06D1FA
:100B30002068006850F480602168086007E0102D8C
:100B400005D02068006850F40070216808602068B3
:100B50000069616A0870606A401C6062608D401EB6
:100B6000608520680069616A0870606A401C606284
:100B7000608D401E60852068406830F440702168B8
:100B80004860202084F83D0094F83E00402808D1B9
:100B9000002084F83E0000202063200000F07FFE4B
:100BA00012E0002084F83E0012202063200000F0B4
:100BB0002EFD09E020680069616A0870606A401CC7
:100BC0006062608D401E608531BD90F83E10402906
:100BD0000FD1016D002905D1416C11F0FE010268B1
:100BE00011614AE0416C51F00101C9B20268116122
:100BF00043E00169B1F5804F24D190F83D102129DF
:100C000005D1416C11F0FE010268116105E0416CF3
:100C100051F00101C9B202681161416B002903D092
:100C2000416BC96B002906D1816B002925D0816BEE
:100C3000C96B002921D00168496851F4006102683C
:100C400051601AE0016D00290AD1416C11F4407124
:100C500089B2C90951F0F001C9B2026811610CE012
:100C6000016D012909D1416C11F4407189B2C909A2
:100C700051F0F101C9B2026811617047416CC9B20B
:100C800002681161416B002902D1816B00290DD0EE
:100C9000416BC96B002903D1816BC96B002905D059
:100CA0000168496851F4006102685160704738B4C6
:100CB00090F83E20C36A046B90F83D10222940F062
:100CC0000E81016D00290DD11100C9B2402909D151
:100CD00000210091016849690091016889690091CA
:100CE000009905E1016D002916D10169B1F5404F68
:100CF00012D1002100910168496900910168896958
:100D0000009100990168096851F4807105682960B3
:100D1000016D491C0165EBE0418D00290FD10021D7
:100D20000091016849690091016889690091009901
:100D30000168096851F4007105682960CCE0418DB3
:100D4000012968D1DFF8A0168B4229D10168096812
:100D500031F48061056829600168496809050FD58B
:100D60000168096831F480610568296000210091FB
:100D70000168496900910168896900910099ABE0B7
:100D80000021009101684969009101688969009119
:100D900000990168096851F40071056829609BE0B9
:100DA000082B22D0202B20D0122C01D1012B1CD1BA
:100DB000042B0AD0022B08D0102B06D0016809683A
:100DC00031F480610568296005E00168096851F423
:100DD00080610568296000210091016849690091DE
:100DE000016889690091009976E00168096831F429
:100DF00080610568296000210091016849690091BE
:100E000001688969009100990168096851F40071CD
:100E10000568296060E0418D022938D1042B10D08B
:100E2000022B0ED0102B0CD00168096831F48061C0
:100E3000056829600168096851F400610568296046
:100E400005E00168096851F480610568296001685E
:100E50004968090511D5DFF890158B4207D0012BA1
:100E600005D0082B03D0102B01D0202B05D1016811
:100E7000496851F48051056869600021009101685A
:100E800049690091016889690091009924E001682D
:100E9000096851F48061056829600168496809059D
:100EA00011D5DFF844158B4207D0012B05D0082B54
:100EB00003D0102B01D0202B05D10168496851F4D3
:100EC00080510568696000210091016849690091BD
:100ED00001688969009100990021016508E00021FD
:100EE0000091016849690091016889690091009940
:100EF00031BC704738B5040094F83D50608D00282F
:100F00001ED0606A007821680861606A401C6062D7
:100F1000608D401E6085608D002811D12800C0B210
:100F200029280DD12068406830F48060216848602D
:100F300021202063282084F83D00200000F0B0FC30
:100F400031BD418D002909D0416A097802681161DB
:100F5000416A491C4162418D491E4185704738B53F
:100F6000040094F83D50608D00281ED02068006970
:100F7000616A0870606A401C6062608D401E608516
:100F8000608D002811D12800C0B22A280DD1206818
:100F9000406830F480602168486022202063282067
:100FA00084F83D00200000F07CFC31BD418D00291B
:100FB00009D001680969426A1170416A491C41629D
:100FC000418D491E41857047F8B505000E00002788
:100FD00095F83D0010F0280028281BD128684068AB
:100FE00030F4806029684860700701D40120070050
:100FF000300602D4E868040001E0A869040000207B
:1010000085F83C00220092B23900C9B2280000F0F5
:1010100049FC06E07FF0020029684861002085F85D
:101020003C00F1BD38B5040094F83D50206840689C
:1010300030F4E0602168486000200090206840693A
:1010400000902068006850F0010021680860009856
:101050002068006830F4806021680860206840687B
:1010600000054ED52800C0B2222803D02800C0B207
:101070002A2823D1A06B006840686085608D002815
:1010800003D0206C50F0040020642068406830F4E5
:10109000006021684860A06B00F0F1FD012830D0AD
:1010A0000FF24930A16B0865A06B00F0D0FC00285E
:1010B00027D0A06BA16B096D884722E0606B0068A8
:1010C00040686085608D002803D0206C50F00400DB
:1010D00020642068406830F4006021684860606BDC
:1010E00000F0CDFD01280CD00FF20130616B0865D6
:1010F000606B00F0ACFC002803D0606B616B096D85
:101100008847608D002822D020684069400709D5B3
:1011100020680069616A0870606A401C6062608DC6
:10112000401E608520684069400609D52068006936
:10113000616A0870606A401C6062608D401E608554
:10114000608D002803D0206C50F004002064206CD7
:10115000002803D0200000F084F82FE02800C0B25F
:101160002A2807D100202063282084F83D00200091
:1011700000F097FB94F83D0028280DD19A48E062D2
:1011800000202063202084F83D00002084F83E00E9
:10119000200000F0FDFD11E0206B222803D0280084
:1011A000C0B222280AD100202063202084F83D000C
:1011B000002084F83E00200000F073FB31BD70B5C4
:1011C000040094F83D50E66A082E01D0202E21D16B
:1011D0002800C0B228281DD18348E06220684068FA
:1011E00030F4E060216848607FF4806021684861E5
:1011F0002068006830F48060216808600020206367
:10120000202084F83D00002084F83E00200000F0FB
:10121000BFFD25E02800C0B221281DD17248E06240
:1012200021202063202084F83D00002084F83E0027
:101230002068406830F4E060216848607FF4806096
:10124000216848612068006830F480602168086087
:10125000200000F025FB03E07FF4806021684861F6
:1012600070BDF8B5040094F83D5094F83E00102885
:1012700009D12800C0B2222805D12068006830F4C6
:101280000060216808602800C0B210F028002828FB
:1012900005D100202063282084F83D000FE020685D
:1012A0004068000506D42800C0B2602802D0202083
:1012B00084F83D0000202063002084F83E00206870
:1012C0004068000543D52068406830F4006021681C
:1012D0004860606B90F83500012816D00FF20D10B1
:1012E000616B0865606B00F0B2FB00285BD0206882
:1012F00000684008400021680860202084F83D0014
:10130000606B616B096D88474DE00FF2E100A16BE6
:101310000865A06B00F09BFB002844D02068406962
:10132000400606D520680069616A0870606A401C42
:101330006062206800684008400021680860202042
:1013400084F83D00A06BA16B096D88472BE094F8F1
:101350003D00602819D1202084F83D000020206441
:1013600020684069400606D520680069616A0870F7
:10137000606A401C60622068006840084000216884
:101380000860200000F005FD0DE02068406940067F
:1013900006D520680069616A0870606A401C606256
:1013A000200000F0F7FC266C16F00F0F05D0206827
:1013B000406830F4E0602168486094F83D70206C2B
:1013C000400710D53800C0B228280CD10648E0628A
:1013D00000202063202084F83D00002084F83E0097
:1013E000200000F0D5FCF1BD0000FFFF70B5040047
:1013F000A56B95F83D60686B002802D00020696BF2
:10140000C863A86B002802D00020A96BC8632868B5
:10141000006830F480602968086000206885686B87
:10142000002802D00020696B0865A86B002802D054
:101430000020A96B086528680068400840002968FA
:10144000086095F83D0060280BD1202085F83D000C
:10145000002085F83E0000202864280000F099FC58
:1014600020E03000C0B210F02800282811D12868F0
:10147000006850F00100296808602868006850F48E
:1014800080602968086000202863282085F83D00D6
:1014900005E0202085F83D00002085F83E0028006A
:1014A00000F078FC70BDC16AB1F52A0F02D10121AC
:1014B000C16205E0C16AB1F12A4F01D10821C162C0
:1014C0007047F0B40246106895681318506803EB33
:1014D0005004C0071DD54D441BE013F8017B05F8EF
:1014E000017B491EF9D1A0B1B60813F8011B06F023
:1014F0000306032E08BF13F8016B01EB06214942D6
:10150000801C294405D011F8016B05F8016B401EC1
:10151000F9D1A3420ED013F8016B16F0030104BFFA
:1015200013F8011BC91C30090F28DAD113F8010B7D
:101530000F30D6E7F0BC02F10C00704780B5394897
:101540003949016039494160002181600021C16051
:101550004FF480410161002141610021816100213E
:10156000C16100210162FEF70FFE002801D000F0EA
:101570002FFD01BD10B586B0040001A8142100F0B4
:101580002DFD20682849884235D100200090284848
:10159000016851F002010160006810F00200009043
:1015A0000098C02001901220029001200390032097
:1015B00004900420059001A91E4800F013FD0020AE
:1015C00000901D48016851F400110160006810F49A
:1015D000001000900098002205211F2000F0BFFE9F
:1015E0001F2000F0D1FE00220521202000F0B7FED0
:1015F000202000F0C9FE06B010BD01680A4A9142E1
:1016000004D10E490A7852F001020A70704701684D
:10161000054A914204D109490A7852F002020A703F
:1016200070470000EC88002000540040A0860100B4
:10163000303802400004024040380240048D00204F
:101640002DE9F04104000D00002C01D1012095E0AE
:10165000654F386810F00F00A84207D23D70386817
:1016600010F00F00A84201D0012087E02078800709
:1016700016D52078400704D55C48016851F4E05144
:1016800001602078000704D55848016851F4604192
:10169000016056490A6832F0F002A06802430A600D
:1016A0002078C00738D56068012805D15048006807
:1016B000800313D4012061E06068022802D06068D2
:1016C000032805D14A480068800107D4012055E06D
:1016D00047480068800701D401204FE0DFF80C8103
:1016E000D8F800108908890060680143C8F8001024
:1016F00000F062FE0600D8F8000010F00C006168EF
:10170000B0EB810F08D000F057FE801B41F2893109
:101710008842F0D3032031E0386810F00F00854292
:1017200007D23D70386810F00F00A84201D00120A8
:1017300024E02078400706D52C490A6832F4E052AC
:10174000E06802430A602078000707D5274801684F
:1017500031F46041226951EAC201016000F052F89F
:101760002449224A1268C2F30312895CC840224904
:1017700008602248006800F025FE0020BDE8F081E6
:101780001D480068704780B5FFF7FAFF1C49174AEB
:101790001268C2F38222895CC84002BD80B5FFF79F
:1017A000EFFF1749114A1268C2F34232895CC84000
:1017B00002BD0F2202600D4A136813F00303436059
:1017C000136813F0F0038360136813F4E053C360ED
:1017D0001268D20812F4E0520261034A126812F051
:1017E0000F020A6070470000003C024008380240C7
:1017F00000380240D0EF0008200000201C0000202C
:1018000080F100082DE9F041002400250026002782
:101810001F48006810F00C00002804D0042804D0F1
:10182000082804D031E01B4830E01A482EE0DFF8E9
:101830006880D8F8000010F03F000400D8F80000DD
:1018400040020CD5D8F80000C0F388101149A1FB64
:1018500000012200002300F001FE05000BE0D8F893
:101860000000C0F388100B49A1FB000122000023F7
:1018700000F0F4FD0500D8F80000C0F30140401C62
:1018800040000600B5FBF6F000E00248BDE8F0813C
:10189000083802400024F4000438024070477047C2
:1018A00070477047704730B4002513E050F8042BA0
:1018B000D30744BFA9F101039A18091F042942F86C
:1018C000045BFAD213468C0744BF15809B1CC907E2
:1018D00048BF1D7050F8041B0029E7D130BC704789
:1018E00070B50400002600F067FD0500002C01D152
:1018F000012065E0606A0028002084F8340002209E
:1019000084F83500206800684008400021680860BD
:1019100020680068C0070BD500F04EFD401B06286C
:10192000F6D320206065032084F83500032047E0CB
:1019300020680168DFF8B00301406268A0680243D4
:10194000E06802432069024360690243A0690243E0
:10195000E0690243206A02431143606A042803D10C
:10196000E26A206B024311432068016020684669E7
:10197000F608F600606A0643606A042810D1A06A7F
:101980000643E06A00280BD0200000F0B3F90028DD
:1019900006D040206065012084F8350001200FE06A
:1019A00020684661200000F086F901003F22E06DCA
:1019B00082408A6000206065012084F835000020A4
:1019C00070BD2DE9F84304000D0016001F005FF004
:1019D0000008D4F8589094F83400012801D102206E
:1019E00033E0012084F8340094F83500012825D133
:1019F000022084F83500002060653B003200290099
:101A0000200000F041F93F21E06D8140C9F8081045
:101A10002068006850F0160021680860206C0028DB
:101A200005D02068006850F0080021680860206830
:101A3000006850F001002168086004E0002084F88C
:101A40003400022080464046C0B2BDE8F283010067
:101A500091F83500022803D080204865012009E074
:101A6000052081F8350008680068400840000A68D1
:101A7000106000207047F8B5040000200090DFF8E7
:101A80006C0200684FF41651B0FBF1F5A66D376893
:101A90000821E06D11FA00F0074210D020680068BC
:101AA00040070CD52068006830F004002268106000
:101AB000E06D8140B160606D50F001006065E06DE7
:101AC0003900C140C8070BD520684069000607D51A
:101AD0000121E06D8140B160606D50F002006065F1
:101AE0000421E06D11FA00F007420AD02068006876
:101AF000800706D5E06D8140B160606D50F0040054
:101B000060651021E06D11FA00F007422CD02068CA
:101B10000068000728D5E06D8140B160206800684A
:101B2000400311D520680068000306D4206C00280B
:101B30001AD02000216C884716E0A06C002813D032
:101B40002000A16C88470FE020680068C00505D41C
:101B50002068006830F0080021680860206C0028C8
:101B600002D02000216C88472021E06D11FA00F09E
:101B700007425FD020680068C0065BD5E06D8140F9
:101B8000B16094F83500052828D12068006830F04D
:101B90001600216808602068406930F080002168E4
:101BA0004861206C002802D1A06C002805D0206874
:101BB000006830F00800216808603F21E06D814036
:101BC000B160002084F83400012084F83500206DD5
:101BD000002802D02000216D88474FE0206800686F
:101BE000400311D520680068000306D4606C00280B
:101BF00020D02000616C88471CE0E06B002819D0E1
:101C00002000E16B884715E020680068C0050BD410
:101C10002068006830F0100021680860002084F817
:101C20003400012084F83500E06B002802D0200049
:101C3000E16B8847606D002820D0606DC00717D524
:101C4000052084F8350020680068400840002168BD
:101C500008600098401C0090854203D3206800680B
:101C6000C007F6D4002084F83400012084F8350041
:101C7000E06C002802D02000E16C8847F1BD90F8AC
:101C800035007047406D704730B40468246834F400
:101C9000802405682C60046863608468402C04D14B
:101CA0000468A2600468E16003E00468A16004685D
:101CB000E26030BC7047017801F0FF011039182252
:101CC000B1FBF2F10A4A525CC265042905D30268ED
:101CD000920A9202121D826503E00268920A920241
:101CE0008265806D704700003F8010F0200000206A
:101CF00078F1000810B402000020936A916900296D
:101D000016D1002B05D0022B03D008D3032B0DD006
:101D10000DE0D16AC90101D50121080035E0D16A81
:101D2000B1F1C07F01D1012108002EE02DE02CE0AF
:101D30009169B1F5005F18D1002B05D0022B03D0BB
:101D400005D3032B09D00FE0012108001DE0D16A63
:101D5000C90101D50121080017E0D16AB1F1C07FA6
:101D600001D10121080010E00FE01900002902292B
:101D700002D9C91E03D008E00121080005E0D16A9C
:101D8000C90101D501210800FFE7C0B210BC7047AE
:101D9000704770477047B1F5807F02D34FF0FF3036
:101DA00070470170012070470078401E8041C04399
:101DB000C00F7047F8B500F069FC00F029F800F09A
:101DC0007FFC00F04FFD00F0A1FD00F011FE00F0DF
:101DD000F3FE00F014FF01F013F801F01FF8FFF715
:101DE000ADFB01F05CF801F076F801F09FFA01F02C
:101DF00039F801F0C1FA704801F0FEFA68466F49FF
:101E0000102201F01DFB01F077FB02F013F8FEE752
:101E100080B596B00AA8302100F0E0F801A814219E
:101E200000F0DCF806A8102100F0D8F8002000909F
:101E30006348016851F080510160006810F08050E3
:101E400000900098002000905E48016851F48041A5
:101E50000160006810F48040009000980D200A9006
:101E60005FF480300B9001200C9001200F90022035
:101E700010905FF480001190102012904FF4A87021
:101E80001390022014900F2015900AA802F0DCF89D
:101E9000002801D000F09CF80F2001900220029051
:101EA000002003904FF4A05004904FF48050059010
:101EB000052101A8FFF7C4FB002801D000F088F835
:101EC000022006904FF48070099006A802F0AAFA4A
:101ED000002801D000F07CF817B000BDF8B5040070
:101EE0000D0016000027287810F00100002815D1F9
:101EF0003800310080B289B288420FD2642001F0EC
:101F0000E2FF6437200002F03DFB0228EBD33A00E9
:101F100092B221002C4801F06FFAE4E7F1BDF8B568
:101F200004000D00160000272878C0F34000C0B25E
:101F3000002815D13800310080B289B288420FD212
:101F4000C82001F0C0FFC837200002F01BFB0228A8
:101F5000EAD33A0092B221001B4801F04DFAE3E7C0
:101F6000F1BDF8B504000D00160000272878C0F375
:101F70008000C0B2002815D13800310080B289B28B
:101F800088420FD2C82001F09EFFC837200002F01F
:101F9000F9FA0228EAD33A0092B221000A4801F085
:101FA0002BFAE3E7F1BD10B5040020680749884229
:101FB00001D102F003FB10BDB4EE0008B0EF000841
:101FC0004038024000700040C8EE000800000140A8
:101FD00070470268531C036011707047002202F0C2
:101FE000F9BAA500F8B50023002400260025102D1D
:101FF00080F00081012717FA05F213000A681A40E1
:1020000014009C4240F0F4804A68012A08D04A68D3
:10201000022A05D04A68112A02D04A68122A1FD122
:10202000D0F808C05FF0030E2A00D2B252001EFAA8
:1020300002FE3CEA0E0CD1F80CE02A00D2B25200AB
:102040001EFA02FE5EEA0C0CC0F808C04268AF40FF
:10205000BA434F68C7F30017AF403A4316004660D3
:10206000C7685FF0030C2A00D2B252001CFA02F2D9
:102070009743D1F808E02A00D2B252001EFA02FEBD
:102080005EEA0707C7604A68022A02D04A68122A35
:102090001ED12A00D20800EB8202166A5FF00F0EF2
:1020A00015F00702D2B292001EFA02FE36EA0E06C0
:1020B000D1F810E015F00702D2B292001EFA02FE2B
:1020C0005EEA060637002A00D20800EB8202176299
:1020D00006682A00D2B252001CFA02FC36EA0C064C
:1020E00091F804C01CF0030C2A00D2B252001CFA72
:1020F00002FC5CEA060606604A68D20078D5002237
:102100000092DFF84421176857F48047176012687F
:1021100012F480420092009ADFF830C12A0092083F
:102120005CF822705FF00F0E15F00302D2B292003D
:102130001EFA02FE37EA0E07454A904201D10026F8
:1021400023E0444A904201D101261EE0424A9042D7
:1021500001D1022619E0414A904201D1032614E040
:102160003F4A904201D104260FE03E4A904201D1FD
:1021700005260AE03C4A904201D1062605E03B4A8A
:10218000904201D1072600E00826F6B215F00302BE
:10219000D2B29200964037432A0092084CF822703F
:1021A000334E3268A243D1F804C05FEACC3C00D57C
:1021B000224332602F4F3E68A643D1F804C05FEA45
:1021C0008C3C00D526433E602B4F3A68A243D1F8A1
:1021D00004C05FEACC2C00D522433A60274F3E680A
:1021E000A643D1F804C05FEA8C2C00D526433E609C
:1021F0006D1CFCE6F1BD020010690B009BB2184299
:1022000001D0012000E00020C0B270471300DBB213
:10221000002B03D00B009BB2836103E00B009BB249
:102220001B048361704743690A0092B213400A009D
:1022300092B2934204D10A0092B21204826102E087
:102240000A0092B282617047443802400838014067
:10225000000002400004024000080240000C02405E
:10226000001002400014024000180240001C02400E
:10227000003C0140043C0140083C01400C3C014052
:1022800010B410F00703DFF8184122684FF6FF0181
:102290000A40DFF8101151EA03210A43226010BC02
:1022A0007047DFF8FC000068C0F3022070470100AF
:1022B00049B2002909D4012210F01F018A403A498D
:1022C00003005BB25B0941F82320704710B40200A1
:1022D00052B2002A05D40A01344B040064B21A55E4
:1022E00008E00A01324B040064B214F00F042344E6
:1022F00003F8042C10BC704770B4030013F00704FB
:10230000D4F10700052801D3042001E0D4F107002F
:10231000251D072D01D2002500E0E51E012616FA35
:1023200000F0401E0140A94016FA05F56D1E2A4036
:102330001143080070BC7047BFF34F8F18490A68FB
:1023400012F4E0621B4802430A60BFF34F8F00BFE4
:10235000FDE710B504002000FFF792FF10BD2DE946
:10236000F04104000D0016000027FFF79AFF804699
:10237000320029004046FFF7BFFF0100200040B2B5
:10238000FFF7A4FFBDE8F08110B50400200040B2C3
:10239000FFF78DFF10BD80B5FFF7CEFF01BD000038
:1023A0000CED00E00000FA0500E100E000E400E0D0
:1023B00018ED00E00400FA0501480068704700BF0E
:1023C000648D00202DE9F04387B00400002500262D
:1023D000002221001920FFF7C2FF1920FFF7D4FFC8
:1023E000002000901948016851F001010160006867
:1023F00010F001000090009801A902A8FFF7D9F998
:10240000FFF7CCF947001248B7FBF0F8B8F1010824
:10241000DFF840901048C9F8000040F2E730C9F8F2
:102420000C00C9F804800020C9F810000020C9F889
:102430000800484602F0E8F8002803D1484602F0B8
:10244000FFF800E0012007B0BDE8F0834438024007
:1024500040420F00288A002000000140BBBBE1B1D0
:10246000B2F5803F80F07E80022A1ED98C46B1FBF7
:10247000F2F102FB11C31B0443EA1043B3FBF2FC6D
:1024800002FB1C3380B240EA0343B3FBF2F002FBD1
:10249000103240EA0C4000237047022A05D98446D6
:1024A000B0FBF2F002FB10C270474AB105D100F058
:1024B000010249085FEA300070470022002370479C
:1024C00002F004BA0B000200002100207047904285
:1024D00071EB030CF6D3B3F5803F2FD2F0B5B3FA0E
:1024E00083F7B1FA81F4A7F10F0E3D1B5340CEF1F3
:1024F000200602FA0EF2F3415340B5F10F0746D819
:102500000F3C2C444140C4F12006A040F141414021
:10251000B1FBF3F603FB1611A2FB0645001BA94114
:1025200002D2761E8018594180EA010221FA0EF388
:1025300062FA0EF200215A403046F0BD30B4B1FBD1
:10254000F3FC03FB1C11A2FB0C45001BA94103D2A9
:10255000ACF1010C8018594130BC02460B46604674
:1025600000217047B2F1807F65D3F0B5B2FA82F7EF
:10257000B1FA81F4C7F10F063D1B22FA06F307F109
:10258000110EF24120355A40B5F10F07B8D941403C
:10259000C4F12006A040F1414140B1FBF3FC03FB34
:1025A0001C11A2FB0C45001BA94103D2BCF1010C7C
:1025B000801859410F2F12D30F3FC90341EA5041F0
:1025C000B1FBF3F603FB1611A2FB0645D4EBC030BA
:1025D000A94102D2761E8018594146EACC3C07B385
:1025E0004140C7F12006B840F1414140B1FBF3F64C
:1025F00003FB1611A2FB0645001BA94102D2761E61
:102600008018594180EA010221FA0EF3C7F1200433
:1026100062FA0EF20CFA07F05A402CFA04F1304339
:10262000F0BD80EA010221FA0EF3002162FA0EF2F7
:1026300060465A40F0BD8C46B1FBF2F102FB11C37B
:102640001B0243EA1063B3FBF2FC02FB1C331B02C8
:102650004CEA002043EA1063B3FBF2FC02FB1C339C
:102660001B024CEA002043EA1063B3FBF2FC02FBBE
:102670001C331B024CEA002043EA1063B3FBF2FC5C
:1026800002FB1C324CEA00200023704780B50B4847
:10269000016851F400710160016851F480610160CA
:1026A000016851F4807101600320FFF752FE0020A1
:1026B000FFF788FE02F00CF9002002BD003C02404A
:1026C0002DE9F04786B068461421FFF787FC00200B
:1026D00005905D48016851F004010160016811F046
:1026E00004010591059900210591016851F08001CF
:1026F0000160016811F080010591059900210591A3
:10270000016851F001010160016811F001010591BA
:10271000059900210591016851F0100101600168DF
:1027200011F010010591059900210591016851F002
:1027300002010160016811F0020105910599002173
:102740000591016851F008010160006810F008006F
:10275000059005983D4C002205212000FFF756FD0D
:102760003B4D00224FF488712800FFF74FFD40F6E3
:102770000376384F002231003800FFF747FDDFF8BD
:10278000D88000224FF4A0514046FFF73FFD42F2AF
:10279000F909DFF8C8A0002249465046FFF736FD88
:1027A000052000900120019000200290002003905D
:1027B00069462000FFF716FC4FF488700090012056
:1027C0000190002002900020039069462800FFF746
:1027D00009FC1020009022480190002002906946D8
:1027E0002000FFF7FFFB00960120019000200290DF
:1027F0000020039069463800FFF7F4FB4FF4A05027
:102800000090012001900020029000200390694672
:102810004046FFF7E7FBCDF8009001200190002033
:1028200002900020039069465046FFF7DBFB022030
:102830000090002001900020029069465046FFF76A
:10284000D1FB06B0BDE8F0873038024000080240F6
:10285000000002400010024000040240000C024050
:102860000000111080B5002000902748016851F445
:1028700080010160016811F480010091009900213C
:102880000091016851F400110160006810F400101B
:1028900000900098002205210E20FFF760FD0E2019
:1028A000FFF772FD002205210F20FFF758FD0F20D2
:1028B000FFF76AFD002205213920FFF750FD39207E
:1028C000FFF762FD002205213A20FFF748FD3A207C
:1028D000FFF75AFD002205213B20FFF740FD3B207A
:1028E000FFF752FD002205214520FFF738FD452066
:1028F000FFF74AFD002205214620FFF730FD462064
:10290000FFF742FD01BD00BF303802401FB56846E9
:102910001021FFF763FB304C304820605FF48030BB
:1029200060600020A0600020206100202076002050
:1029300084F820000020E0622948A0620020E060C6
:102940000120E061002084F8300001206061200057
:1029500001F0E2FF002801D0FFF73AFB00200090D1
:1029600001200190002002906946200002F007F843
:10297000002801D0FFF72CFB1FBD10B586B0040066
:1029800001A81421FFF72AFB20681449884221D1AD
:10299000002000901348016851F4807101600068C4
:1029A00010F4807000900098002000900E4801689C
:1029B00051F001010160006810F0010000900098E2
:1029C00001200190032002900020039001A90748F4
:1029D000FFF708FB06B010BDE08900200020014091
:1029E0000100000F4438024030380240000002402D
:1029F0006748684901600021416000218160002131
:102A0000C16000210161002141611921816170478C
:102A10002DE9F84F86B0040001A81421FFF7DEFA73
:102A200020685C49884240F0B080002000905A48FD
:102A3000016851F400610160006810F400600090CA
:102A40000098002000905548016851F00401016091
:102A5000016811F0040100910099002100910168C2
:102A600051F008010160006810F008000090009823
:102A70004FF4F850019002200290002003900320B0
:102A800004900C20059001A94548FFF7ABFA0420FB
:102A900001900220029000200390032004900C205B
:102AA000059001A93F48FFF79DFADFF8FCB03F48C9
:102AB000CBF800005FF00065CBF804500020CBF8A5
:102AC00008000020CBF80C004FF48066CBF81060B3
:102AD0004FF48057CBF814704FF48048CBF818802F
:102AE0002020CBF81C000020CBF820000420CBF8DD
:102AF00024000320CBF828005FF40009CBF82C90C9
:102B00005FF4001ACBF830A05846FEF7E9FE002823
:102B100001D0FFF75DFAC4F840B0CBF83840DFF8D9
:102B200090B02448CBF80000CBF804504020CBF8FC
:102B300008000020CBF80C00CBF81060CBF8147024
:102B4000CBF818802020CBF81C000020CBF8200008
:102B50000420CBF824000320CBF82800CBF82C90DD
:102B6000CBF830A05846FEF7BBFE002801D0FFF797
:102B70002FFAC4F83CB0CBF83840002205213120B0
:102B8000FFF7EDFB3120FFF7FFFB07B0BDE8F08F4B
:102B9000F8820020002C01404438024030380240C6
:102BA00000080240000C02404885002058640240A2
:102BB000A8850020A064024080B583488349016055
:102BC0004FF482714160002181600021C1600021C9
:102BD0000161002141614FF4007181610021C161F7
:102BE0000021016200214162002181620A21C1624B
:102BF00002F03CF8002801D0FFF7EAF901BD80B5EA
:102C00007348744901604FF4827141600021816012
:102C10000021C16000210161002141614FF4007178
:102C200081611021C1610021016200214162002106
:102C300081620A21C16202F019F8002801D0FFF771
:102C4000C7F901BD70B586B0040001A81421FFF7D3
:102C5000C5F920685D49884226D1002000905E4871
:102C6000016851F480510160006810F480500090B8
:102C70000098002000905948016851F0010101605E
:102C8000006810F0010000900098E0200190022000
:102C9000029000200390032004900520059001A9D4
:102CA0004F48FFF79FF96EE020684A4988426AD191
:102CB000002000904B48016851F480410160006899
:102CC00010F4804000900098002000904348016874
:102CD00051F002010160006810F0020000900098BD
:102CE0004FF46040019002200290002003900320E6
:102CF00004900520059001A93B48FFF773F93B4D6F
:102D00003B482860002068600020A8600020E86040
:102D10004FF480662E61002068610020A8610020C9
:102D2000E86100202862002068622800FEF7D8FDD4
:102D3000002801D0FFF74CF9E564AC632D4D2E4817
:102D40002860002068604020A8600020E8602E61B4
:102D5000002068610020A8610020E861002028624E
:102D6000002068622800FEF7BBFD002801D0FFF7B5
:102D70002FF9A564AC63002205212420FFF7EFFAA8
:102D80002420FFF701FB06B070BD0168114A914293
:102D900004D11A490A7852F002020A707047016899
:102DA0000C4A914204D115490A7852F002020A7085
:102DB00070470168074A914204D110490A7852F0DD
:102DC00001020A7070470000E887002000300140CF
:102DD000408800200038004044380240303802402B
:102DE00000000240403802400004024008860020F3
:102DF0005860024068860020706002400C8D002000
:102E000080B50349034802F0A1FB0349087001BDE6
:102E10001C8D0020DCEE0008B68D002080B50E4829
:102E20000E49016002F09EFB002801D0FFF7D0F8A8
:102E300001BD81B00168094A91420BD10021009186
:102E400007490A6852F480520A60096811F48051F7
:102E50000091009901B07047F48C002000300240CE
:102E60003038024080B5DFF85404DFF854140160B4
:102E70004FF4166141604FF4805181600021C160C0
:102E8000002101610C214161002181610021C161AA
:102E900002F07AFB002801D0FFF79AF801BD80B557
:102EA000DFF82004DFF8201401604FF41651416070
:102EB000002181600021C160002101610C2141617C
:102EC000002181610021C16102F05EFB002801D078
:102ED000FFF77EF801BD80B5DFF8F003DFF8F013EF
:102EE00001605FF4E1314160002181600021C16037
:102EF000002101610C214161002181610021C1613A
:102F000002F042FB002801D0FFF762F801BDF8B5DE
:102F100086B0040068461421FFF760F82068DFF8E7
:102F2000A013884254D100200590DFF8A80301685F
:102F300051F010010160006810F010000590059834
:102F400000200590DFF89003016851F00101016055
:102F5000006810F00100059005984FF4C0600090E3
:102F6000022001900020029003200390072004908B
:102F70006946DFF86803FFF735F8DFF86453DFF8D8
:102F8000640328605FF0006068600020A860002093
:102F9000E8604FF480602861002068610020A8612B
:102FA0000020E86100202862002068622800FEF707
:102FB00097FC002801D0FFF70BF86563AC63002293
:102FC00005212520FFF7CBF92520FFF7DDF9A5E046
:102FD0002068DFF8F412884231D100200590DFF834
:102FE0000803016851F480210160006810F480201A
:102FF0000590059800200590DFF8DC02016851F08B
:1030000008010160006810F00800059005984FF471
:103010004070009002200190002002900320039055
:10302000072004906946B148FEF7DCFF0022052125
:103030002720FFF794F92720FFF7A6F96EE0206814
:10304000A34988426AD100200590A248016851F046
:1030500020010160006810F0200005900598002014
:1030600005909D48016851F004010160006810F06E
:10307000040005900598C0200090022001900020D7
:103080000290032003900820049069469848FEF7B8
:10309000A9FF984D984828605FF020666E60002078
:1030A000A8600020E8604FF480672F61002068610D
:1030B0000020A8614FF48070E861002028620020A1
:1030C00068622800FEF70CFC002801D0FEF780FFA4
:1030D0006563AC63894D8A4828606E604020A860B3
:1030E0000020E8602F61002068610020A8610020B6
:1030F000E86100202862002068622800FEF7F0FBEB
:10310000002801D0FEF764FF2563AC63002205218F
:103110004720FFF724F94720FFF736F907B0F0BD45
:1031200010B5040040F2DC52611CD4F8E00502F056
:10313000EAFA10BD10B5040020686549884207D13D
:103140007048017851F002010170FFF7E9FF0DE0CE
:103150005A4884420AD184226B496C4803F02EF805
:103160006B480078002801D100F03CF810BD0168E0
:10317000684A914204D168490A7852F002020A7002
:1031800070470168524A91420BD150490A68D2688F
:1031900052F010020968CA605A490A7852F00102D6
:1031A0000A70704770B50400200002F0AFFB050004
:1031B0002068474988420BD1200002F0A7FB060097
:1031C0003100564800F018F94E48FFF7A9FF08E013
:1031D0003A48844205D12900514800F00DF900F029
:1031E00001F870BD10B53D4C01224FF480712000F4
:1031F000FFF70CF842224449304802F000FA00225E
:103200004FF480712000FFF701F810BD2DE9F04761
:1032100004000D001600307810F0FD00307040F210
:10322000DC594F465FF0000816F1010A42463900AA
:10323000504603F0A9F9D6F8E005406B0068006835
:1032400040084000D6F8E015496B09680860D6F8D8
:10325000E005406B0068C0F80490D6F8E005406BCC
:103260000068006850F00100D6F8E015496B096865
:10327000086043F698294A4631002A48FEF74FFE77
:10328000D6F8E0050068C06830F01000D6F8E01508
:103290000968C8604FF4FA7000F015FE0020307025
:1032A0002A0092B22100D6F8E00502F0E1F94A4680
:1032B00031001D48FEF712FEBDE8F087A88A002005
:1032C00000100140E88A002000480040288B0020C0
:1032D00000140140443802403038024000000240EF
:1032E000C88600204064024040380240000C024082
:1032F00000080240288700202864024088870020B8
:10330000B8640240906300207C830020248C00205D
:10331000B78D002000440040AC5D002074E600083A
:10332000ACE70008E0EF0008F0EE000880B50F48B9
:103330000F490160002141607F218160FF21C16050
:1033400000210161002141610021816103F050F9F8
:10335000002801D0FEF73CFE01BD0168044A9142FD
:1033600002D10121034A116070470000E48B002064
:10337000002800403C0E47421CB51B48D0E9002302
:10338000CDE90023194C1A4820600020606000201D
:10339000A0600020E0600020A061200001F034F96E
:1033A000002801D0FEF714FE0020009000200190BC
:1033B0006946200003F03EFB002801D0FEF708FE1E
:1033C00013BD81B001680A4A91420BD100210091DE
:1033D00008490A6852F010020A60096811F01001E9
:1033E0000091009901B0704790F10008688A0020B0
:1033F00000100040403802400EB4C0B5024603A899
:1034000000210190009101AB0121044878440C3067
:1034100003F066FB06BC5DF810FB00BFD1B80000EE
:1034200062B38B0708D0521E11F8013B00F8013B34
:1034300000F024808B07F6D1830740F0208000BF86
:10344000103A07D330B4B1E83810103AA0E8381079
:10345000F9D230BC530724BFB1E80810A0E8081027
:1034600044BF51F8043B40F8043BD20724BF31F875
:10347000022B20F8022B44BF0B7803707047121FF9
:1034800017D35B0009D151F8043B20F8023B1B0C19
:10349000121F20F8023BF6D20BE051F8043B00F873
:1034A000013B1B0A20F8023B1B0C121F00F8013BDA
:1034B000F3D238BF121D521E24BF11F8013B00F891
:1034C000013BF8D8704705FFBFF34F8FDFF8401876
:1034D0000A6812F4E062DFF83C0802430A60BFF3B6
:1034E0004F8F00BFFDE7DFF830380360DFF82C387E
:1034F0000B6080231360704780B5AEB0DFF8200802
:10350000D0E90023CDE9022302A800F0EAFCDFF8AD
:1035100014180860DFF81008D0E90023CDE9002373
:10352000684600F0DEFCDFF80418086027A8DFF822
:1035300000181C22FFF784FF002127A800F093FC4D
:10354000DFF8F017086020A8DFF8EC171C22FFF75F
:1035500077FF002120A800F086FCDFF8E017086064
:1035600019A8DFF8DC171C22FFF76AFF002119A851
:1035700000F079FCDFF8CC17086012A8DFF8C81754
:103580001C22FFF75DFF002112A800F06CFCDFF8A1
:10359000BC1708600BA8DFF8B8171C22FFF750FF14
:1035A00000210BA800F05FFCDFF8A817086004A852
:1035B000DFF8A4171C22FFF743FF002104A800F046
:1035C00052FCDFF8981708602FB000BD2DE9F14FCD
:1035D00088B001A8DFF888171822FFF731FF1824F8
:1035E0000025DFF88067DFF88017300002F0C0FDAB
:1035F000DFF87877DFF87817380002F0B9FD01219D
:1036000001A804F0DDFB2200D2B201A9380002F0CB
:10361000D5FD04F0DFFCDFF85C0704F01FFA41F28F
:10362000110101A804F0CCFB2200D2B201A938009C
:1036300002F0C4FDDFF81407006805F0D9F8DFF8E0
:103640001407006805F0D4F8FFF7CCFD5FF084089C
:103650005FF00009DFF820A7D3464A4641465846A6
:1036600002F092FF002301225146300002F0FEFDDD
:10367000ADF80000BDF80000842820D1EDB26D1C2B
:1036800028000A2190FBF1F501FB1505514601A820
:1036900004F02EFBDFF88C865FF0FF31D8F80000D5
:1036A00006F0ACF82200D2B201A9380002F086FD83
:1036B000002300220021D8F8000005F0A7FE00F04A
:1036C0004CFA322000F0FFFBC0E72DE9F14F88B043
:1036D0006420029000250026DFF8A0060490002751
:1036E000DFF85806006804F0F8FFDFF860060068AD
:1036F00004F0F3FFDFF83C06006804F0EEFFDFF8AB
:103700005406006804F0E9FFDFF83806006804F0AA
:10371000E4FF0120DFF86816087002A806F0D5FC67
:10372000012808D1DFF85C06FFF766FE4FF47A70D7
:1037300000F0C9FBF1E70B2006F0BAFEDFF848B64F
:10374000DBF80C0006F0A8FDDFF840A601224021BE
:103750005046FEF75BFD06F0C1FD07003800C0B221
:103760000B28C0F2AC803800C0B2632880F2A7807A
:103770000298A84253D00298401B40F2515188420F
:1037800003D34FF4AA60040002E00298401B040037
:10379000059528190690DFF8F8854FF480724146A8
:1037A00005A806F0CCFF404600F0ECFE42F2107196
:1037B00000910A2303AA010089B2404606F0D5FB16
:1037C0008DF80400C0B2002819D12100039804F03C
:1037D00053FB002813D00020060004AA210049084A
:1037E0000398143006F07EFE65192900DFF8A40561
:1037F000FFF702FE40215046FEF715FD5BE0DFF8C3
:103800009805FFF7F9FDDBF80C0006F045FD761C86
:103810003000C0B20B284EDB00F023FA4BE007F07B
:1038200022F8002804D0DFF87405FFF7E5FDF6E77D
:103830000221032007F0D8F8DFF86405FFF7DCFD6C
:10384000DFF86085DFF82C05027F00234146022067
:1038500006F0C0FF002804D0DFF84C05FFF7CCFDD0
:10386000EEE7DFF84895012200234946022006F0E2
:10387000B1FF002804D0DFF83805FFF7BDFDF0E701
:1038800007F002F8002804D0DFF82805FFF7B4FDA0
:10389000F6E7404604F0EDFA0100DFF81C05FFF7FB
:1038A000ABFD484604F0E5FA0100DFF81005FFF72C
:1038B000A3FDFFF709FE012000F005FB4BE74FF4E5
:1038C0007A7000F000FB46E770B586B00400012571
:1038D0006846DFF8EC141822FFF7B2FDDFF8640445
:1038E000006804F0FAFE280080B2032190FBF1F298
:1038F00001FB120000281DD1DFF8840400780028A5
:1039000018D11321684604F05BFADFF818645FF001
:10391000FF31306805F072FFDFF8A80402786946CD
:10392000DFF8480402F04AFC00230022002130683E
:1039300005F06CFD280080B2022190FBF1F201FB42
:103940001200002821D1DFF83804007800281CD1AB
:10395000DFF8D8635FF0FF31306805F04FFF06F005
:10396000D9FC002804D14FF4FA6000F0ACFAF6E775
:1039700004F0F6F8DFF81004006806F08DFC002370
:1039800000220021306805F041FD6D1C8021DFF828
:10399000FC03FEF748FC4FF4FA6000F094FAA2E74B
:1039A0002DE9F04786B005006846DFF81C141822A0
:1039B000FFF746FD04F0C2FADFF89003006804F058
:1039C0008CFEDFF80864DFF808744FF40050398982
:1039D00090FBF1F0022190FBF1F0401E3070DFF817
:1039E000A803006806F058FCDFF85803006804F0EC
:1039F000FFFEB96AF86A091A0C002000C0B200285C
:103A000033D030782100C9B2884202D296F80080C3
:103A100002E0A0465FFA88F85FF000094846C0B2AD
:103A2000414680B289B288421AD2DFF864A3FB6AA9
:103A300000224FF48071504604F06AFCDFF88403E2
:103A400003786A464FF48071504604F0F0F800287D
:103A500003D0684606F0F0FDF0E719F10109DDE753
:103A600006F05FFE00F09DF8C3E7DA48FFF7C4FCFC
:103A700040F6B83000F027FABBE72DE9F04188B0F6
:103A8000040002A8D4491822FFF7DAFCB148006804
:103A900004F023FE00252800C0B2042836DA2800EE
:103AA000C0B204F02BFA07F018F8CC2006F0DFFFC4
:103AB000442006F0DCFF40F2EE2000F004FA07F0AC
:103AC0000CF8CC2006F0D3FFBE2006F0D0FF022673
:103AD0000027E8463A003100404602F055FD6846AE
:103AE00006F0E3FF0DF1010006F0DFFF9DF8011085
:103AF0009DF8000006F0FCFF01A92A00D2B288540C
:103B00002800C0B204F00AFA6D1CC4E701A902A89B
:103B100004F01DF9834D5FF0FF31286805F06EFE5B
:103B2000A848027802A9914802F048FB002300222D
:103B30000021286805F06AFC00F00FF84FF47A7055
:103B400000F0C1F9A6E710B50400A44807F02EF86C
:103B50004FF47A5000F0B7F9F7E770B5714C5FF0A9
:103B6000FF31206805F04AFE964E804D98490A893B
:103B7000AB7C5B1C307843435B1C9A420ADA8B6A4D
:103B80000022A97C30784143286804F038FB2800E3
:103B900002F0FDFA002300220021206805F036FC27
:103BA00070BD2DE9FC410126604F5FF0FF313868A0
:103BB00005F024FE06F0AEFB002804D14FF4FA60B5
:103BC00000F081F9F6E73000C0B2002841D0DFF8FC
:103BD0001082404600F0D6FC010042F210700090C6
:103BE0000A2301AA89B2404606F0BFF90500C0B217
:103BF000002810D07B48FFF7FFFB6348006806F001
:103C00004BFB761C3000C0B20328DCDB0020060032
:103C100000F027F8D7E7002006007348FFF7ECFB19
:103C200001980B3007F056F8040020005149C97E76
:103C3000C0B28842C7D02000C0B20028C3D0210043
:103C4000C9B26A48FFF7D8FB3C48006804F0D0FDD1
:103C5000B9E7002300220021386805F0D7FBBDE852
:103C6000F38170B500266248FFF7C6FB06F0A6FB9D
:103C700006F078FB06F034F95E4A04215E4806F04F
:103C800021F905001EA1280007F056F80400002CB9
:103C900002D02078002801D158480400210058485B
:103CA000FFF7AAFB002C02D02078002801D153484E
:103CB000040014A1200007F065F8002819D0F6B21E
:103CC000761C30000A2190FBF1F601FB160630004D
:103CD000C0B2002808D14B48FFF78EFB40F6B83041
:103CE00000F0F1F8FEF757FB41F2883000F0EBF8F6
:103CF000C0E705A3012205A1434806F053F870BDB3
:103D00000D0A00004F4B000030000000312C310044
:103D10000CED00E00400FA0598880020E87E002001
:103D200020F10008388D002028F100083C8D00208B
:103D30009CE90008208D0020B8E90008248D0020AF
:103D4000D4E90008288D0020F0E900082C8D00201F
:103D50000CEA0008308D002028EA0008348D00208D
:103D60009CEB0008248C0020387300203C8C002041
:103D7000506F0020C48B00207482002000000E08C9
:103D8000B78D002038ED0008CC8C0020000C0240DC
:103D9000E880002024EB0008ACE8000864E9000893
:103DA0003CEB000800C00008A8E6000804C00008BA
:103DB0003CE6000880E9000814EF000854EB000816
:103DC000B4EB0008A4010020CCEB0008B88D002063
:103DD000688B00206CEB0008E4EB0008E88C002006
:103DE000AA3D00204CED000860ED000884EB0008BF
:103DF00024EF00089063002010F1000830F0000864
:103E000074ED000834EF000818F1000801000020EC
:103E10000A0012B2842A03D00A0012B2D21C10186F
:103E20007047EFF30580002801D0012000E000205A
:103E3000C0B2704780B504F01CFD002002BD80B503
:103E400004F0F5FF012801D1002000E0012002BDAF
:103E500080B5FFF7E6FF002802D004F0D0FD01E0B6
:103E600004F0C9FD02BD38B584B004000D006069DE
:103E7000002813D0A069002810D0B4F90800FFF77B
:103E8000C5FFA16902916169019100902B0022692F
:103E90002168606804F0B8FA039011E0B4F90800F2
:103EA000FFF7B4FF03A9019100902B00226992B2A1
:103EB0002168606804F0F7FA012801D0002000E0D2
:103EC000039805B030BD38B505000120B5FBF0F40E
:103ED000002C01D0200000E0012004F0D7FB0020DE
:103EE00032BD10B504006068002804D0616801206C
:103EF00005F075FA02E0012005F061FA10BD38B551
:103F000004000D00A06800280BD0E068002808D04D
:103F100000200090E368A2686168206805F096F9C7
:103F200004E000226168206805F0F1F932BD73B544
:103F300005001600002000900120B6FBF0F4002CD4
:103F400001D101200400FFF76CFF002815D00023E9
:103F50006A4601A9280005F02CFB012801D0FF20AA
:103F600016E00098002812D05FF0805035490860B4
:103F7000BFF34F8FBFF36F8F09E00023220001A929
:103F8000280005F043FA012801D0FF2000E00020BE
:103F900076BDF8B584B007000D001600029500202C
:103FA0000190002D07D180200090684690E80E0017
:103FB00087E80E0044E000200390002416F1010F72
:103FC00003D15FF0FF30040009E0002E07D001208C
:103FD000B6FBF0F00400002C01D101200400FFF733
:103FE00020FF002817D003AA01A9280005F0DAFC59
:103FF000012802D11020009001E0002000900398D9
:10400000002818D05FF080500E490860BFF34F8F32
:10401000BFF36F8F0FE0220001A9280005F039FBE4
:10402000012802D11020009005E0002C01D10020D1
:1040300000E040200090684690E80E0087E80E00FF
:1040400005B0F0BD04ED00E02DE9F8430400002CBC
:1040500001D10120CFE12078C0075FD5DFF89C03B4
:10406000016811F00C01042909D0006810F00C005F
:1040700008280ED1DFF888030068400209D5DFF870
:1040800084030068800349D56068002846D1012078
:10409000B1E16068B0F5803F06D1DFF868030168E0
:1040A00051F48031016018E06068B0F5A02F0AD1AA
:1040B000DFF85003016851F480210160016851F478
:1040C0008031016009E0DFF83C03016831F48031A0
:1040D0000160016831F480210160606800280ED021
:1040E000FEF76AF90500DFF81C030068800315D4A9
:1040F000FEF762F9401B6528F5D303207BE1FEF74C
:104100005BF90500DFF8FC020068800306D5FEF7C6
:1041100053F9401B6528F5D303206CE12078800714
:104120004BD5B648016811F00C0F08D0006810F0AC
:104130000C00082814D1B2480068400210D4B148DD
:104140000168890704D5E168012901D0012052E105
:10415000016831F0F801226951EAC20101602CE0E6
:10416000E068002818D00120A7490860FEF724F96C
:104170000500A4480168890706D4FEF71DF9401B15
:104180000328F6D3032036E1016831F0F8012269F3
:1041900051EAC201016010E000209B490860FEF76F
:1041A0000BF9050097480068800706D5FEF704F96B
:1041B000401B0328F6D303201DE12078000724D5F7
:1041C0006069002810D0012090490860FEF7F4F8DB
:1041D00005008F480068800717D4FEF7EDF8401BF4
:1041E0000328F6D3032006E1002088490860FEF783
:1041F000E3F8050086480068800706D5FEF7DCF87E
:10420000401B0328F6D30320F5E0207840077CD537
:104210000027DFF80082D8F80000C0000FD400208B
:104220000090D8F8000050F08050C8F80000D8F88E
:10423000000010F080500090009801200700DFF887
:10424000D891D9F80000C00513D4D9F8000050F473
:104250008070C9F80000FEF7AFF80500D9F800003B
:10426000C00506D4FEF7A8F8401B0328F6D30320A8
:10427000C1E0A068012805D16848016851F001013A
:10428000016015E0A068052809D16448016851F073
:1042900004010160016851F00101016008E05F481C
:1042A0000168490849000160016831F004010160BA
:1042B000A06800280FD0FEF77FF805005748006877
:1042C000800718D4FEF778F8401B41F28931884204
:1042D000F4D303208FE0FEF76FF805004F48006825
:1042E000800708D5FEF768F8401B41F28931884203
:1042F000F4D303207FE03800C0B2012805D1D8F8FC
:10430000000030F08050C8F80000A069002871D08B
:104310003A48006810F00C00082847D0A06902282D
:1043200033D13F4F00203860FEF746F88046DFF873
:10433000D490D9F80000800107D5FEF73DF8B0EB26
:1043400008000328F3D3032055E0E169206A014304
:10435000606A51EA8011A06A4008401E51EA00419B
:10436000E06A51EA00612648016001203860FEF7EA
:1043700023F80500D9F8000080013BD4FEF71CF8B3
:10438000401B0328F6D3032035E0002024490860B1
:10439000FEF712F805001B48006880012AD5FEF7D9
:1043A0000BF8401B0328F6D3032024E0A069012862
:1043B00001D101201FE012480068060016F48000B9
:1043C000E169884214D116F03F00216A88420FD17A
:1043D00047F6C0703040616A884209D116F4403017
:1043E000A16A884204D116F07060E16A884201D067
:1043F000012000E00020BDE8F28300BF0838024041
:10440000043802400038024000004742800E474214
:10441000743802404038024000700040703802405A
:10442000600047422DE9F843050000260024287863
:1044300010F0050F2CD0DFF8287100203860FDF750
:10444000BBFF8046DFF81C91D9F80000000107D5BA
:10445000FDF7B2FFB0EB08000328F3D303207CE0A4
:104460006868A968090751EA8011DFF8FC0001605B
:1044700001203860FDF7A0FF0600D9F80000000118
:1044800006D4FDF799FF801B0328F6D3032064E0D0
:104490002878800760D5002000903448016851F0EA
:1044A00080510160006810F0805000900098304FFB
:1044B000386850F480703860FDF77EFF0600386879
:1044C000C00506D4FDF778FF801B0328F7D303202F
:1044D00043E0284F386810F440700400002C20D0CE
:1044E000E86810F4407084421BD0386830F44070A3
:1044F0000400214801210160002101603C6038680E
:10450000C0070ED5FDF758FF06003868800708D4AD
:10451000FDF752FF801B41F289318842F5D3032019
:104520001BE0E86810F44070B0F5407F09D11349F2
:104530000A6832F4F812EB68114803401A430A6023
:1045400004E00E48016831F4F81101603868E96848
:104550000905090D084338600020BDE8F28300001A
:104560006800474200380240843802404038024028
:104570000070004070380240400E47420838024048
:10458000FFFCFF0F00F10103810704D010F8011BAD
:10459000820781B1FAD10268A2F10131914311F091
:1045A000803104BF50F8042FF6E709BAB1FA81F15F
:1045B00000EBD100401CC01A70470000034801689E
:1045C000034A127889180160704700BF648D00208B
:1045D000A601002000B500BF13009646944610398E
:1045E00028BFA0E80C50FAD85FEA417C28BF0CC075
:1045F00048BF40F8042BC90728BF20F8022B48BF4A
:1046000000F8012B00BD000010B50400002C01D102
:10461000012014E094F83D00002805D1002084F822
:104620003C002000FEF7CDFE022084F83D00211D55
:10463000206800F0D5F8012084F83D00002010BD6E
:1046400001000868C06850F001000A68D06008687E
:10465000826812F00702062A05D00868006850F048
:1046600001000B6818600020704710B50400206836
:10467000006980071AD52068C068800716D57FF0CA
:10468000020021680861012020772068806910F00D
:10469000030F03D0200006F09AFB05E0200006F08F
:1046A00097FB200006F095FB00202077206800692A
:1046B00040071AD52068C068400716D57FF004006F
:1046C00021680861022020772068806910F4407F0B
:1046D00003D0200006F07BFB05E0200006F078FB0D
:1046E000200006F076FB0020207720680069000794
:1046F0001AD52068C068000716D57FF00800216829
:104700000861042020772068C06910F0030F03D0EF
:10471000200006F05CFB05E0200006F059FB2000BD
:1047200006F057FB0020207720680069C0061AD5E4
:104730002068C068C00616D57FF0100021680861A7
:10474000082020772068C06910F4407F03D0200043
:1047500006F03DFB05E0200006F03AFB200006F0E5
:1047600038FB0020207720680069C0070AD5206840
:10477000C068C00706D57FF00100216808612000ED
:10478000FDF711FC2068006900060AD52068C068A2
:10479000000606D57FF0800021680861200006F041
:1047A00019FB2068006940060AD52068C0684006E9
:1047B00006D57FF0400021680861200006F00BFB61
:1047C0002068006980060AD52068C068800606D582
:1047D0007FF0200021680861200006F0FDFA10BD7E
:1047E00010B40468DFF8B830984212D0B0F1804FAE
:1047F0000FD0DFF8B02090420BD0DFF8AC20904211
:1048000007D0DFF8A820904203D0DFF8A420904220
:1048100003D134F070044A681443984228D0B0F1B0
:10482000804F25D0DFF87C20904221D0DFF878201F
:1048300090421DD0DFF87420904219D0DFF870202C
:10484000904215D0DFF86C20904211D0DFF868203C
:1048500090420DD0DFF86420904209D0DFF860204C
:10486000904205D0174A904202D0174A904203D195
:1048700034F44074CA68144334F080044A69144321
:1048800004608A68C2620A688262984202D0084A5A
:10489000904201D10A6902630122426110BC704753
:1048A000000001400004004000080040000C0040EF
:1048B0000004014000400140004401400048014024
:1048C00000180040001C004000200040704700001D
:1048D00080B5002000900E48016851F480410160CD
:1048E000006810F480400090009800200090094873
:1048F000016851F080510160006810F08050009014
:10490000009800220F217FF00100FDF728FD01BD76
:10491000443802404038024038B504000025002CDD
:1049200001D101202AE0A06ADFF82C138842206C14
:10493000002807D12000FEF720F800206064002046
:1049400084F83C00206CC00611D4206C30F48850F0
:1049500050F002002064200000F0CFF800206064D6
:10496000206C30F0020050F00100206401E00120D2
:104970000500002084F83C002800C0B232BD38B4E5
:1049800002000020009092F83C00012801D1022092
:10499000B1E0012082F83C0008680A2818D31068AA
:1049A000C368072408680A38032510FB05F0844013
:1049B000A3431068C3601068C3688C6808680A382D
:1049C000032510FB05F0844023431068C36013E007
:1049D0001068036907240D6803204543AC40A343D6
:1049E00010680361106803698C680D6803204543F3
:1049F000AC402343106803614868072818D2106848
:104A0000436B1F244868401E052510FB05F08440B9
:104A1000A343106843631068436B0C884868401ECA
:104A2000052510FB05F0844023431068436333E001
:104A300048680D2818D21068036B1F244868C01FEF
:104A4000052510FB05F08440A3431068036310683C
:104A5000036B0C884868C01F052510FB05F08440D7
:104A600023431068036317E01068C36A1F24486873
:104A70000D38052510FB05F08440A3431068C36280
:104A80001068C36A0C8848680D38052510FB05F0CE
:104A9000844023431068C362724B73481468844295
:104AA00006D10C68122C03D15C6854F480045C605D
:104AB000146884421BD10868102802D008681128A5
:104AC00015D1586850F400005860086810280ED1BD
:104AD00062480068624CB0FBF4F40A20444300943E
:104AE0000098002803D00098401E0090F8E70020AE
:104AF00082F83C00002032BC70475A4A516831F4B9
:104B000040315160536841680B4353600168496804
:104B100031F480710368596001684968036951EA9A
:104B20000321036859600168496831F040710368E6
:104B3000596001684B6881680B4301684B600168EC
:104B4000896831F400610368996001688B68C16805
:104B50000B4301688B60816A3F4B994218D0016812
:104B6000896831F070610368996001688B68816AB7
:104B70000B4301688B600168896831F0405103681C
:104B8000996001688B68C16A0B4301688B600BE018
:104B90000168896831F0706103689960016889680B
:104BA00031F04051036899600168896831F0020171
:104BB0000368996001688968037E51EA43010368CC
:104BC000996090F82010002914D00168496851F4C8
:104BD0000061036859600168496831F46041036805
:104BE000596001684968436A5B1E51EA43310368B2
:104BF000596005E00168496831F400610368596053
:104C00000168C96A31F470010368D9620168C96A30
:104C1000C3695B1E51EA03510368D9620168896860
:104C200031F40071036899600168896890F8303048
:104C300051EA4321036899600168896831F4806111
:104C40000368996001688968436951EA83210368B0
:104C500099607047000000000100000F2000002054
:104C600040420F00002301400020014010B5040025
:104C7000002C01D101203FE0606A00280020A062E2
:104C800094F85100002805D1002084F8500020003D
:104C9000FDF7D8FF022084F851002068006830F04A
:104CA0004000216808606168A0680143E068014332
:104CB0002069014360690143A06910F40070014359
:104CC000E0690143206A0143A06A01432068016052
:104CD000A169090C11F00401606A01432068416078
:104CE0002068C06930F400602168C86100206065F8
:104CF000012084F85100002010BDF8B505000C001B
:104D00001700002695F85000012801D102206CE020
:104D1000012085F8500095F85100012802D00220AA
:104D200006005DE0002C03D0380080B2002802D1DC
:104D30000120060054E0032085F85100002068653A
:104D40002C63AF86EF860020A863002068640020F3
:104D500028640020A8870020E887A868B0F5004FE5
:104D600005D12868006850F48040296808600FF277
:104D70008550A96C08640FF21D40A96CC8630FF23E
:104D8000A550A96CC8640020A96C0865EB8E286842
:104D900010F10C02296BA86CFCF713FE002809D057
:104DA000686D50F01000686501200600012085F84C
:104DB000510015E028680068400605D4286800689E
:104DC00050F04000296808602868406850F02000D2
:104DD000296848602868406850F0020029684860E7
:104DE000002085F850003000C0B2F2BDF8B50500D3
:104DF0000C0016000027A86800280ED16868B0F5DE
:104E0000827F0AD1042085F8510033009BB2220032
:104E10002100280000F073F870E095F85000012898
:104E200001D102206AE0012085F8500095F8510078
:104E3000012802D0022007005BE0002C03D03000E4
:104E400080B2002802D10120070052E0042085F83A
:104E5000510000206865AC63AE87EE8700202864AF
:104E6000002068640020A8860020E886A868B0F5C5
:104E7000004F05D12868006830F480402968086038
:104E80000FF28140E96C08640FF28530E96CC86369
:104E90000FF29140E96CC8640020E96C0865EB8F63
:104EA000AA6B286810F10C01E86CFCF78AFD002859
:104EB00009D0686D50F010006865012007000120DE
:104EC00085F8510015E028680068400605D4286878
:104ED000006850F04000296808602868406850F079
:104EE0002000296848602868406850F0010029685F
:104EF0004860002085F850003800C0B2F2BD2DE9AE
:104F0000F04706000C0015001F005FF0000896F83F
:104F10005000012801D10220A6E0012086F85000AF
:104F200096F851A0D6F804905046C0B201280CD093
:104F3000B9F5827F06D1B068002803D15046C0B2CF
:104F4000042802D00220804689E0002C05D0002DE4
:104F500003D0380080B2002802D1012080467EE0D4
:104F600096F85100042802D0052086F85100002050
:104F700070653463B786F786B563B787F787002017
:104F800030640020706496F85100042808D10FF2B4
:104F90007530F16C08640FF27920F16CC86307E09A
:104FA0000FF27130F16C08640FF2E120F16CC8630C
:104FB0000FF27130F16CC8640020F16C0865F38F5A
:104FC000B26B306810F10C01F06CFCF7FAFC0028B1
:104FD00009D0706D50F010007065012080460120EE
:104FE00086F851003BE03068406850F001003168BD
:104FF00048600020B16C08640020B16CC8630020D8
:10500000B16CC8640020B16C0865F38E306810F193
:105010000C02316BB06CFCF7D4FC002809D0706D29
:1050200050F01000706501208046012086F8510084
:1050300015E030680068400605D43068006850F01C
:105040004000316808603068406850F020003168E6
:1050500048603068406850F00200316848600020C5
:1050600086F850004046C0B2BDE8F0877CB5040029
:10507000206845682068866816F04100012805D13F
:10508000680603D52000216C884782E0B00705D56B
:10509000280603D52000616C88477AE016F4B07FBB
:1050A00077D0A80675D570061BD594F85100032853
:1050B0000DD0606D50F00400606500200090206805
:1050C000C0680090206880680090009809E0002087
:1050D00000902068C0680090206880680090009868
:1050E00057E0B0060FD5606D50F0010060650020FC
:1050F00000902068806800902068006830F04000D0
:10510000216808600098F00509D5606D50F008002E
:105110006065002000902068806800900098606DB5
:10512000002835D02068406830F0E00021684860F1
:10513000012084F8510015F0030F26D02068406844
:105140008008800021684860E06C00280CD00FF2D5
:10515000FD10E16C0865E06CFCF779FC002803D0D9
:10516000606D50F040006065A06C002810D00FF218
:10517000DD10A16C0865A06CFCF769FC002807D065
:10518000606D50F04000606502E0200005F025FEF3
:10519000FFE773BD7CB50400A56BFDF70DF90600B4
:1051A00020680068C0052ED42868406830F02000D0
:1051B000296848602868406830F002002968486023
:1051C00032006421280000F06AF9002803D0686DDD
:1051D00050F020006865A868002808D100200090E1
:1051E0002868C068009028688068009000980020B7
:1051F000E886012085F85100686D002803D028005A
:1052000005F0EBFD02E02800FDF7D3FD73BD0000C3
:1052100070B50400A56BFDF7CFF8060020680068A4
:10522000C0052ED42868406830F020002968486006
:10523000A86800280AD16868B0F5827F06D128687E
:105240004068800880002968486005E02868406858
:10525000400840002968486032006421280000F0BE
:10526000D1F8002801D0202068650020E8870120BF
:1052700085F85100686D002803D0280005F0ADFDC9
:1052800002E02800FDF781FD70BD000070B504004C
:10529000A56BFDF791F8060020680068C00524D4CE
:1052A0002868406830F02000296848603200642196
:1052B000280000F0F4F8002803D0686D50F02000BA
:1052C0006865286840688008800029684860002078
:1052D000E8860020E887012085F85100686D0028E5
:1052E00003D0280005F079FD02E02800FDF757FD06
:1052F00070BD000038B50400A56B280005F06EFDF8
:1053000031BD000038B50400A56B280005F067FD2D
:1053100031BD000038B50400A56B280005F060FD24
:1053200031BD000038B50400A56B286840688008CE
:10533000800029684860686D50F0100068650120A1
:1053400085F85100280005F048FD31BD38B504004E
:10535000A56B0020E8870020E886280005F03DFDC9
:1053600031BD00002DE9F04105000E0090461C0003
:10537000069F286880683040B04201D1012000E0DB
:1053800000204146C9B2884239D014F1010FF0D053
:10539000FDF712F8C01BA04201D2002CE9D1286809
:1053A000406830F0E000296848606868B0F5827FA6
:1053B0000DD1A868B0F5004F03D0A868B0F5806F94
:1053C00005D12868006830F0400029680860A86AA4
:1053D000B0F5005F0BD12868006830F400502968F0
:1053E00008602868006850F40050296808600120AF
:1053F00085F85100002085F85000032000E00020CF
:10540000BDE8F0817CB504000D0016006068B0F5C1
:10541000827F0DD1A068B0F5004F03D0A068B0F531
:10542000806F05D12068006830F040002168086076
:105430006068B0F5827F21D1A068B0F5806F0ED092
:1054400000962B00002280212000FFF78BFF002810
:1054500023D0606D50F02000606503201EE00096B0
:105460002B00002201212000FFF77CFF002814D030
:10547000606D50F02000606503200FE000962B0067
:10548000002201212000FFF76DFF002805D0606D8C
:1054900050F020006065032000E0002076BD7CB560
:1054A00004000D001600154800681821B0FBF1F04B
:1054B0001349B0FBF1F14FF47A70414301916068F8
:1054C000B0F5827F0ED100962B00002280212000B3
:1054D000FFF748FF00280FD0606D50F02000606596
:1054E00003200AE00198002806D00198401E019090
:1054F000206880680006F5D4002076BD20000020DA
:1055000040420F00F0B4040001200025144E737ACD
:10551000002B18D10023777AF355737A06EB8303B7
:105520005C60737A33441A72737A5F1C77721D0061
:1055300015F130030B703A234B702F238B7000232F
:10554000CB7000231800C0B2F0BC704738B504001F
:105550000D00002229002000FFF7D4FF32BD00001B
:10556000DC8C002010B50400002C01D101200AE0E1
:105570006079002804D1002020712000FDF759FC3B
:1055800001206071002010BD10B50400002C01D175
:10559000012033E0A0690028FFD194F839000028E9
:1055A00005D1002084F838002000FDF7B0FC24204D
:1055B00084F839002068C06830F400502168C86061
:1055C000200000F0E5FA2068006930F4904021687E
:1055D00008612068406930F02A002168486120682D
:1055E000C06850F400502168C8600020E0632020AB
:1055F00084F83900202084F83A00002010BD10B44F
:10560000030093F83A0020282FD1002903D010007E
:1056100080B2002801D1012028E093F83800012849
:1056200001D1022022E0012083F8380099629A8596
:10563000DA850020D863222083F83A00002083F81E
:1056400038001868C06850F480701C68E060186802
:10565000406950F001001C6860611868C06850F033
:1056600020001C68E060002000E0022010BC7047B1
:1056700073B50400150094F83900202841D1019831
:10568000002803D0280080B2002801D1012039E091
:1056900094F83800012801D1022033E0012084F879
:1056A000380001982062A584E5840020E063212071
:1056B00084F839000FF25D20216BC8630FF2892056
:1056C000216B08640FF2E520216BC8640020216B78
:1056D000086501AE2B009BB22068021D3168206B6B
:1056E000FCF76FF97FF0400021680860002084F823
:1056F00038002068406950F080002168486100202F
:1057000000E0022076BD73B50400150094F83A005D
:10571000202851D10198002803D0280080B2002809
:1057200001D1012049E094F83800012801D102207C
:1057300043E0012084F838000198A062A58500208C
:10574000E063222084F83A000FF20D20616BC863F9
:105750000FF24920616B08640FF25120616BC8643D
:105760000020616B086501AE2B009BB23268206897
:10577000011D606BFCF725F900200090206800688F
:1057800000902068406800900098002084F838005D
:105790002068C06850F480702168C8602068406943
:1057A00050F00100216848612068406950F04000D5
:1057B00021684861002000E0022076BD2DE9F84311
:1057C0000600306807683068D0F80C803068D0F880
:1057D00014900020002517F00F04002C08D1B80603
:1057E00006D55FEA886003D5300000F07AF98BE0D7
:1057F000002C77D05FEAC97002D418F4907F71D082
:1058000017F00100C0B2002806D05FEAC85003D5E7
:10581000F06B50F00100F063780708D519F0010033
:10582000C0B2002803D0F06B50F00200F063B8075C
:1058300008D519F00100C0B2002803D0F06B50F079
:105840000400F06338070BD55FEA886004D419F0D0
:105850000100C0B2002803D0F06B50F00800F063E4
:10586000F06B00283DD0B80605D55FEA886002D508
:10587000300000F036F930684069800910F001000E
:105880000500F06B000701D4002D25D0300000F09A
:10589000C3F83068406940061AD53068406930F076
:1058A000400031684861706B00280DD00FF28D10F8
:1058B000716B0865706BFCF7CAF8002811D0706B2B
:1058C000716B096D88470CE03000FDF76BFC08E058
:1058D0003000FDF767FC04E03000FDF763FC0020BA
:1058E000F06311E0380606D55FEA086003D53000A2
:1058F00000F0B0F808E0780606D55FEA486003D506
:10590000300000F0DEF8FFE7BDE8F183C06B7047C0
:105910000000000038B50400A56B20680068C005D1
:105920000ED40020E8842868406930F0800029689F
:1059300048612868C06850F040002968C86002E0EB
:105940002800FDF71EFC31BD38B50400A56B28000A
:1059500005F047FA31BD000038B50400A56B20689A
:105960000068C00516D40020E8852868C06830F4B7
:1059700080702968C860286840694008400029682C
:1059800048612868406930F040002968486120205B
:1059900085F83A002800FDF7CDFB31BD38B504008D
:1059A000A56B2800FDF7E3FB31BD0000F8B506004C
:1059B0000020B76B39684C69E40914F0010497F8CA
:1059C0003910212906D1002C04D00020F884380099
:1059D00000F018F838684569AD0915F0010597F829
:1059E0003A00222806D1002D04D00020F885380086
:1059F00000F012F8F86B50F01000F8633800FDF773
:105A0000D1FBF1BD0168C96831F0C0010268D16005
:105A1000202180F8391070470168C96831F490710D
:105A20000268D1600168496949084900026851610A
:105A3000202180F83A1070470000000038B50400BB
:105A4000A56B0020E8850020E8842800FDF7AAFB6C
:105A500031BD0000010091F8390021282FD188685C
:105A6000B0F5805F11D1086A02001088C005C00D32
:105A70000B6858600869002803D1086A801C086216
:105A800009E0086A401C086205E0086A431C0B62D2
:105A900000780B685860C88C401EC88480B200280B
:105AA0000BD10868C06830F080000B68D8600868C7
:105AB000C06850F040000B68D860002000E0022071
:105AC000704710B504002068C06830F040002168BD
:105AD000C860202084F839002000FDF752FB002028
